:020000040800F2
:1000000078060020650100085F0900085D09000806
:1000100000000000000000000000000000000000E0
:10002000000000000000000000000000630900085C
:1000300000000000000000006109000865090008D8
:1000400077010008770100087701000877010008B0
:1000500077010008770100087701000877010008A0
:100060007701000877010008770100087701000890
:100070007701000877010008770100086909000886
:100080007701000877010008770100087701000870
:100090007701000877010008770100087701000860
:1000A0007701000877010008770100087701000850
:1000B0007701000877010008770100087701000840
:1000C00000F002F800F03EF80CA030C80838241800
:1000D0002D18671EA246AB4654465D46AC4201D180
:1000E00000F030F87E460F3EB6460FCC0126334274
:1000F00000D0FB1A3343A246AB461847480C000019
:10010000680C0000103A02D378C878C1FAD85207B8
:1001100001D330C830C101D504680C6070470000BD
:100120000023002400250026103A01D378C1FBD813
:10013000520700D330C100D50B6070471FB51FBDFB
:1001400010B510BD00F04DF81146FFF7F7FF00F0B5
:100150001BFC00F065F803B4FFF7F2FF03BC00F0EE
:100160006BF800000748804707480047FEE7FEE7B6
:10017000FEE7FEE7FEE7FEE704480549054A064BB1
:100180007047000067090008C100000878000020DF
:1001900078060020780200207802002001E004C0E8
:1001A000091F0429FBD28B0701D50280801CC907D7
:1001B00000D00270704700290BD0C30702D0027034
:1001C000401C491E022904D3830702D50280801CEB
:1001D000891EE3E70022EEE70022DFE77047704761
:1001E0007047754600F024F8AE4605006946534650
:1001F000C008C000854618B020B5FFF7BDFF60BC41
:10020000B64600260027C0C5C0C5C0C5C0C5C0C50C
:10021000C0C5C0C5C0C5403D490849008D467047AE
:1002200010B50446C046C0462046FFF794FF10BDF7
:10023000004870471000002001491820ABBEFEE7BF
:100240002600020070470000014800687047C04661
:100250007000002080B58748016810220A430260C0
:10026000032000F005F800F023F8002080BDC04610
:1002700070B504467D20C0000C4E317800F04EFC75
:1002800001468448006800F049FC00F04FFB01255E
:10029000032C08D8002806D10025E84321462A4629
:1002A00000F01CF87460284670BDC04600000020B5
:1002B00082B00948016801221143016001681140C0
:1002C00001910199110742680A4342604068084061
:1002D0000090009802B0704718100240002805D422
:1002E0000322034693430C4A9A1806E00F22024069
:1002F000083A03239A43074BD2188007C00E89019E
:10030000C9B28140FF2383401068984308431060BE
:100310007047C0461CED00E000E400E0F0B581B09D
:10032000002847D00446534A1368012003408B42FB
:1003300008D213680126B3430B431360126832409E
:100340008A4238D1009121688A074B4B11D54A0760
:1003500007D507221202484B1B681343464A136015
:10036000454B1A68F0239A43A3681343424A13602B
:10037000414BC90722D13F49086801263040009A05
:10038000904205D90868B04308600868C00712D1D8
:100390002078400706D50720000219688143E068ED
:1003A000084318601A681007810F3548022912D2D5
:1003B000044650E00126304601B0F0BD61680329D3
:1003C0000DD01A1F02290FD0012912D112689203F1
:1003D0000646F0D511E0032926D12A4C3BE01A6BE2
:1003E00092030646E7D508E0126892010646E2D578
:1003F00003E0126892070646DDD518680326B0436D
:1004000008431860FFF720FF07461C4D1A4B186879
:100410000C210140606880008142ACD0FFF714FFDE
:10042000C01BA842F2D9C6E70321CB031249896A4F
:100430000F240C401449095D94021A40240F134DF7
:100440002C5D9A4202D033049A4200E00D4800F03D
:1004500065FB4443084B18680006000F0C49085C14
:10046000C4400C4804600320FFF702FF002630461A
:1004700001B0F0BD002002400410024088130000CB
:1004800000127A00006CDC02320D0008220D000818
:10049000120D000808000020F0B587B004460120C6
:1004A000002C00D13CE204902078C007F54E059462
:1004B0000BD071680C200140042927D130688003DB
:1004C00003D56068002800D196E1207880076AD5BE
:1004D00070680007800F0CD070680C21014008295B
:1004E00034D10320C003716801400120C003814260
:1004F0002CD130688007059A03D5D068012800D038
:100500007AE13068F8218843116949E07168014057
:10051000082907D10320C0037168014001200004AD
:100520008142CBD0616801204704002900D112E14B
:10053000052900D126E1012900D127E10104326813
:100540008A43326081043068884322E13068059C28
:10055000E168002910D0012108433060FFF774FEE4
:1005600005463068800717D4FFF76EFE401B02284F
:10057000F7D9032007B0F0BD012188433060FFF7B1
:1005800063FE0546306880070DD5FFF75DFE411B11
:1005900003200229F6D9C3E13068F8218843216994
:1005A000C90001433160059C2078000722D42078DF
:1005B000400734D42078C00600D402E1059A50697F
:1005C000411D73D001287AD1706B042101437163FE
:1005D000706B012101437163FFF736FE0546706BB6
:1005E000800700D5E5E0FFF72FFE411B032002291D
:1005F000F5D995E1706AE169002946D001210843E7
:100600007062FFF721FE0546706A8007CFD4FFF7BE
:100610001BFE401B0228F7D9032007B0F0BD0120C4
:1006200003900107F0690840029006D1F069084381
:10063000F061F0690840069006980191B94F38685A
:10064000C00512D403980402386820433860FFF7CD
:10065000FBFD05463868204207D1FFF7F5FD401B3A
:100660006428F7D9032007B0F0BD059880680028FA
:100670003AD005284ED0012850D0306A03998843DB
:100680003062306A042188434BE001218843706264
:10069000FFF7DAFD0546706A800788D5FFF7D4FDBD
:1006A000401B0228F7D9032007B0F0BD706B04216E
:1006B00088437063706BF821884391697EE0706BAA
:1006C000042101437163706B012188437063FFF75C
:1006D000BBFD0546706B800773D5FFF7B5FD411B69
:1006E00003200229F6D91BE1306A0399884330625E
:1006F000306A0421884330628B4CFFF7A5FD054624
:10070000306A80071DD5FFF79FFD411B0320A142E2
:10071000F6D905E1306A042101433162306A039958
:1007200008433062804CFFF78FFD0546306A800732
:1007300007D4FFF789FD401BA042F7D9032007B07B
:10074000F0BD02980028059C00D033E7F0690199BC
:100750008843F0612EE7010432688A4332608004E6
:10076000316881433160FFF76FFD0546059C3068B5
:10077000384200D1A9E6FFF767FD411B0320642939
:10078000F5D9CDE0810432680A4332600104306853
:1007900008433060FFF758FD05463068384200D006
:1007A00093E6FFF751FD401B6428F6D9032007B0FC
:1007B000F0BD706BF821884305998969C900014330
:1007C00071630598007880060BD571680C20014094
:1007D0000C2935D1706B800303D50598006A012878
:1007E0000AD10598446A002C63D070680C2101403E
:1007F000082904D1012C47D1049807B0F0BD01208D
:10080000020631680492914331604706FFF71CFDF0
:100810000546022C0AD1049C3068384261D0FFF7AB
:1008200013FD411B03200229F6D979E030683842D4
:100830003FD0FFF709FD411B03200229F6D96FE0E5
:1008400071680140082905D10320C0037168014087
:100850008142BFD0706B0599096A00292FD0012110
:100860000A04104370634C04FFF7EEFC0546706BFE
:100870002042B6D1FFF7E8FC411B03200229F6D93C
:100880004EE0C046001002400320C20370680240E0
:10089000F16A059CA36A9A42049D0DD10F22114072
:1008A000236B994208D191040840E16A88422846A6
:1008B00036D1002007B0F0BD284607B0F0BD0121B9
:1008C0000A04904370634C04FFF7BEFC0546706B4E
:1008D000204286D0FFF7B8FC411B03200229F6D93D
:1008E0001EE0F06A0F218843059A116B0143F16203
:1008F0007B20C00371688143D06A0843916A014339
:100900007160306820433060FFF79EFC0446306819
:100910003842CED1FFF798FC011B03200229F6D9FB
:1009200007B0F0BD0070004088130000401E010EAB
:1009300001D0012070477649064A50600648036896
:100940000B4003218907591801600020906007219E
:100950001160704710E000E020ED00E0FEE7FEE7E8
:1009600070477047704770470320000204490A68C7
:1009700042400A60034801680122914301607047C8
:10098000140800481000004094B0FFF763FC07AD66
:10099000281D3021FFF720FC002410941020029025
:1009A0000B9001270A970226079606940594049453
:1009B00003942846FFF770FD002803D0EFF3108062
:1009C00072B6FEE7019606940594049407200390FE
:1009D00003A82146FFF7A2FC002803D0EFF3108004
:1009E00072B6FEE73E46F80441490A46083A1368E3
:1009F000034313600868384308600868019A10438D
:100A000008602D2041033B4B1A680A431A601A689C
:100A100039490A401A601A68384802401A605A6810
:100A20004024A2435A609A680A409A60DA680A40F1
:100A3000DA60B907324A8A62FA22CA62CA683A435D
:100A4000CA600A683A430A60FF22F4322D4C2261E0
:100A500014256561FD4327682F40276067682F4094
:100A600067602568284F3D40256065683D406560AA
:100A7000256870273D43256003252D0323682B43FC
:100A8000236023681D480340236063683B43636021
:100A900063682B4363606368184D2B406360236871
:100AA0001A4D2B43236063682B436360A3681125B1
:100AB0001D43A560E369029D2B43E361236A2B4339
:100AC0002362183C2368334323600A48036A104CAE
:100AD00023400362F3030F4D2B600F4B1D6825402D
:100AE000691819600D32416911434161FEE7C04642
:100AF0001C10024000080048FFEFFFFFFFBFFFFF90
:100B00003F1F000018040040FFFEFFFF0808000020
:100B1000FFFFFF0000E100E00CE400E043088B422F
:100B20001AD3002203098B4279D3030A8B425ED386
:100B3000030B8B4242D3030C8B4227D30902FF22C3
:100B400012BA030C8B4202D31212090203D0030B18
:100B50008B4233D31AE0D3E0411A8041401C7047E6
:100B600003460B4371D443088B42F5D3002203099B
:100B70008B4254D3030A8B4239D3030B8B421DD3D0
:100B8000030C8B4202D394466EE0090AC30B8B42DE
:100B900001D3CB03C01A5241830B8B4201D38B0389
:100BA000C01A5241430B8B4201D34B03C01A52412E
:100BB000030B8B4201D30B03C01A5241C30A8B4271
:100BC00001D3CB02C01A5241830A8B4201D38B025C
:100BD000C01A5241430A8B4201D34B02C01A524100
:100BE000030A8B4201D30B02C01A5241CDD2C30972
:100BF0008B4201D3CB01C01A524183098B4201D3EE
:100C00008B01C01A524143098B4201D34B01C01AD8
:100C1000524103098B4201D30B01C01A5241C30850
:100C20008B4201D3CB00C01A524183088B4201D3BF
:100C30008B00C01A524143088B4201D34B00C01AAB
:100C40005241411A524110007047CA0F00D0494228
:100C5000031000D34042534000229C4603098B42BC
:100C60002DD3030A8B4212D38901FC2212BA030A44
:100C70008B420CD3890192118B4208D389019211C6
:100C80008B4204D3890137D0921100E08909C3094E
:100C90008B4201D3CB01C01A524183098B4201D34D
:100CA0008B01C01A524143098B4201D34B01C01A38
:100CB000524103098B4201D30B01C01A5241C308B0
:100CC0008B4201D3CB00C01A524183088B4201D31F
:100CD0008B00C01A5241D9D243088B4201D34B003A
:100CE000C01A5241411A00D2014652411046634691
:100CF0005B1000D34042704763465B1000D3404214
:100D000001B50021004201D0C9430846C046C04693
:100D100002BD0000000000000000010203040607FD
:100D2000080902030405060708090A0B0C0D0E0F3B
:100D300010100102030405060708090A0B0C0D0E2A
:100D40000F100000680D00080000002010000000D7
:100D500004010008780D000810000020680600005B
:100D60002001000800000000010000000400000055
:080D700000127A0000000000EF
:04000005080000C12E
:00000001FF
