:020000040800F2
:1000000078060020650100087309000871090008DE
:1000100000000000000000000000000000000000E0
:100020000000000000000000000000007709000848
:1000300000000000000000007509000879090008B0
:1000400077010008770100087701000877010008B0
:1000500077010008770100087701000877010008A0
:100060007701000877010008770100087701000890
:100070007701000877010008770100087701000880
:100080007701000877010008770100087701000870
:100090007701000877010008770100087701000860
:1000A0007701000877010008770100087701000850
:1000B0007701000877010008770100087701000840
:1000C00000F002F800F03EF80CA030C80838241800
:1000D0002D18671EA246AB4654465D46AC4201D180
:1000E00000F030F87E460F3EB6460FCC0126334274
:1000F00000D0FB1A3343A246AB461847A00B0000C2
:10010000C00B0000103A02D378C878C1FAD8520761
:1001100001D330C830C101D504680C6070470000BD
:100120000023002400250026103A01D378C1FBD813
:10013000520700D330C100D50B6070471FB51FBDFB
:1001400010B510BD00F04DF81146FFF7F7FF00F0B5
:1001500019FC00F065F803B4FFF7F2FF03BC00F0F0
:100160006BF800000748804707480047FEE7FEE7B6
:10017000FEE7FEE7FEE7FEE704480549054A064BB1
:100180007047000081090008C100000878000020C5
:1001900078060020780200207802002001E004C0E8
:1001A000091F0429FBD28B0701D50280801CC907D7
:1001B00000D00270704700290BD0C30702D0027034
:1001C000401C491E022904D3830702D50280801CEB
:1001D000891EE3E70022EEE70022DFE77047704761
:1001E0007047754600F024F8AE4605006946534650
:1001F000C008C000854618B020B5FFF7BDFF60BC41
:10020000B64600260027C0C5C0C5C0C5C0C5C0C50C
:10021000C0C5C0C5C0C5403D490849008D467047AE
:1002200010B50446C046C0462046FFF794FF10BDF7
:10023000004870471000002001491820ABBEFEE7BF
:100240002600020070470000054800687047C0465D
:100250001A48007802490A68101808607047C046BA
:100260007000002080B58748016810220A430260B0
:10027000032000F005F800F023F8002080BDC04600
:1002800070B504467D20C0000C4E317800F0F2FBC2
:1002900001468448006800F0EDFB00F04FFB0125AB
:1002A000032C08D8002806D10025E84321462A4619
:1002B00000F01CF87460284670BDC04600000020A5
:1002C00082B00948016801221143016001681140B0
:1002D00001910199110742680A4342604068084051
:1002E0000090009802B0704718100240002805D412
:1002F0000322034693430C4A9A1806E00F22024059
:10030000083A03239A43074BD2188007C00E89018D
:10031000C9B28140FF2383401068984308431060AE
:100320007047C0461CED00E000E400E0F0B581B08D
:10033000002847D00446534A1368012003408B42EB
:1003400008D213680126B3430B431360126832408E
:100350008A4238D1009121688A074B4B11D54A0750
:1003600007D507221202484B1B681343464A136005
:10037000454B1A68F0239A43A3681343424A13601B
:10038000414BC90722D13F49086801263040009AF5
:10039000904205D90868B04308600868C00712D1C8
:1003A0002078400706D50720000219688143E068DD
:1003B000084318601A681007810F3548022912D2C5
:1003C000044650E00126304601B0F0BD61680329C3
:1003D0000DD01A1F02290FD0012912D112689203E1
:1003E0000646F0D511E0032926D12A4C3BE01A6BD2
:1003F00092030646E7D508E0126892010646E2D568
:1004000003E0126892070646DDD518680326B0435C
:1004100008431860FFF718FF07461C4D1A4B186871
:100420000C210140606880008142ACD0FFF70CFFD6
:10043000C01BA842F2D9C6E70321CB031249896A3F
:100440000F240C401449095D94021A40240F134DE7
:100450002C5D9A4202D033049A4200E00D4800F02D
:1004600009FB4443084B18680006000F0C49085C60
:10047000C4400C4804600320FFF702FF002630460A
:1004800001B0F0BD002002400410024088130000BB
:1004900000127A00006CDC028A0C00087A0C00085A
:1004A0006A0C000808000020F0B587B0044601205F
:1004B000002C00D13CE204902078C007F54E059452
:1004C0000BD071680C200140042927D130688003CB
:1004D00003D56068002800D196E1207880076AD5AE
:1004E00070680007800F0CD070680C21014008294B
:1004F00034D10320C003716801400120C003814250
:100500002CD130688007059A03D5D068012800D027
:100510007AE13068F8218843116949E07168014047
:10052000082907D10320C00371680140012000049D
:100530008142CBD0616801204704002900D112E13B
:10054000052900D126E1012900D127E10104326803
:100550008A43326081043068884322E13068059C18
:10056000E168002910D0012108433060FFF76CFEDC
:1005700005463068800717D4FFF766FE401B022847
:10058000F7D9032007B0F0BD012188433060FFF7A1
:100590005BFE0546306880070DD5FFF755FE411B11
:1005A00003200229F6D9C3E13068F8218843216984
:1005B000C90001433160059C2078000722D42078CF
:1005C000400734D42078C00600D402E1059A50696F
:1005D000411D73D001287AD1706B042101437163EE
:1005E000706B012101437163FFF72EFE0546706BAE
:1005F000800700D5E5E0FFF727FE411B0320022915
:10060000F5D995E1706AE169002946D001210843D6
:100610007062FFF719FE0546706A8007CFD4FFF7B6
:1006200013FE401B0228F7D9032007B0F0BD0120BC
:1006300003900107F0690840029006D1F069084371
:10064000F061F0690840069006980191B94F38684A
:10065000C00512D403980402386820433860FFF7BD
:10066000F3FD05463868204207D1FFF7EDFD401B3A
:100670006428F7D9032007B0F0BD059880680028EA
:100680003AD005284ED0012850D0306A03998843CB
:100690003062306A042188434BE001218843706254
:1006A000FFF7D2FD0546706A800788D5FFF7CCFDBD
:1006B000401B0228F7D9032007B0F0BD706B04215E
:1006C00088437063706BF821884391697EE0706B9A
:1006D000042101437163706B012188437063FFF74C
:1006E000B3FD0546706B800773D5FFF7ADFD411B69
:1006F00003200229F6D91BE1306A0399884330624E
:10070000306A0421884330628B4CFFF79DFD05461B
:10071000306A80071DD5FFF797FD411B0320A142DA
:10072000F6D905E1306A042101433162306A039948
:1007300008433062804CFFF787FD0546306A80072A
:1007400007D4FFF781FD401BA042F7D9032007B073
:10075000F0BD02980028059C00D033E7F0690199AC
:100760008843F0612EE7010432688A4332608004D6
:10077000316881433160FFF767FD0546059C3068AD
:10078000384200D1A9E6FFF75FFD411B0320642931
:10079000F5D9CDE0810432680A4332600104306843
:1007A00008433060FFF750FD05463068384200D0FE
:1007B00093E6FFF749FD401B6428F6D9032007B0F4
:1007C000F0BD706BF821884305998969C900014320
:1007D00071630598007880060BD571680C20014084
:1007E0000C2935D1706B800303D50598006A012868
:1007F0000AD10598446A002C63D070680C2101402E
:10080000082904D1012C47D1049807B0F0BD01207C
:10081000020631680492914331604706FFF714FDE8
:100820000546022C0AD1049C3068384261D0FFF79B
:100830000BFD411B03200229F6D979E030683842CC
:100840003FD0FFF701FD411B03200229F6D96FE0DD
:1008500071680140082905D10320C0037168014077
:100860008142BFD0706B0599096A00292FD0012100
:100870000A04104370634C04FFF7E6FC0546706BF6
:100880002042B6D1FFF7E0FC411B03200229F6D934
:100890004EE0C046001002400320C20370680240D0
:1008A000F16A059CA36A9A42049D0DD10F22114062
:1008B000236B994208D191040840E16A8842284696
:1008C00036D1002007B0F0BD284607B0F0BD0121A9
:1008D0000A04904370634C04FFF7B6FC0546706B46
:1008E000204286D0FFF7B0FC411B03200229F6D935
:1008F0001EE0F06A0F218843059A116B0143F162F3
:100900007B20C00371688143D06A0843916A014328
:100910007160306820433060FFF796FC0446306811
:100920003842CED1FFF790FC011B03200229F6D9F3
:1009300007B0F0BD0070004088130000401E010E9B
:1009400001D0012070470749074A506007480368F3
:100950000B4003218907591801600020906007218E
:1009600011607047FFFFFF0010E000E020ED00E0A5
:10097000FEE7FEE77047704780B5FFF769FC80BD72
:100980007047000092B0FFF76DFC05AD281D3021C7
:10099000FFF722FC00240E941020099001260896EF
:1009A0000220059004940394029401942846FFF7D2
:1009B0007BFD002803D0EFF3108072B6FEE70494AD
:1009C000039402940720019001A82146FFF7AEFC92
:1009D000002803D0EFF3108072B6FEE7F004204940
:1009E0000A6802430A6070040A6802430A60B1039D
:1009F0001C4802680A430260426880218A434260C0
:100A00008268194B1A408260C2681A40C260320381
:100A10000368134303608268144B1A408260426883
:100A20004025AA434260C2681A40C2600922D20629
:100A3000136813609368B3439360D3683343D36000
:100A400043690B430A4943611369334064001C192D
:100A50008C42F9D14469C02363400C46F3E7C04699
:100A60001410024000080048FFBFFFFFFFEFFFFF28
:100A7000FFFFFF7F43088B421AD3002203098B42FA
:100A800079D3030A8B425ED3030B8B4242D3030C10
:100A90008B4227D30902FF2212BA030C8B4202D3E6
:100AA0001212090203D0030B8B4233D31AE0D3E0B6
:100AB000411A8041401C704703460B4371D44308E0
:100AC0008B42F5D3002203098B4254D3030A8B4295
:100AD00039D3030B8B421DD3030C8B4202D39446B4
:100AE0006EE0090AC30B8B4201D3CB03C01A5241FB
:100AF000830B8B4201D38B03C01A5241430B8B42B1
:100B000001D34B03C01A5241030B8B4201D30B0399
:100B1000C01A5241C30A8B4201D3CB02C01A5241C0
:100B2000830A8B4201D38B02C01A5241430A8B4283
:100B300001D34B02C01A5241030A8B4201D30B026C
:100B4000C01A5241CDD2C3098B4201D3CB01C01A86
:100B5000524183098B4201D38B01C01A5241430990
:100B60008B4201D34B01C01A524103098B4201D37E
:100B70000B01C01A5241C3088B4201D3CB00C01AEB
:100B8000524183088B4201D38B00C01A5241430863
:100B90008B4201D34B00C01A5241411A52411000FE
:100BA0007047CA0F00D04942031000D3404253405F
:100BB00000229C4603098B422DD3030A8B4212D399
:100BC0008901FC2212BA030A8B420CD389019211CB
:100BD0008B4208D3890192118B4204D3890137D00B
:100BE000921100E08909C3098B4201D3CB01C01ADD
:100BF000524183098B4201D38B01C01A52414309F0
:100C00008B4201D34B01C01A524103098B4201D3DD
:100C10000B01C01A5241C3088B4201D3CB00C01A4A
:100C2000524183088B4201D38B00C01A5241D9D262
:100C300043088B4201D34B00C01A5241411A00D2E3
:100C400001465241104663465B1000D34042704754
:100C500063465B1000D3404201B50021004201D041
:100C6000C9430846C046C04602BD0000000000005F
:100C70000000010203040607080902030405060731
:100C800008090A0B0C0D0E0F1010010203040506D3
:100C90000708090A0B0C0D0E0F100000C00C00080D
:100CA000000000201000000004010008D00C000823
:100CB000100000206806000020010008000000006D
:100CC000010000000400000000127A000000000093
:04000005080000C12E
:00000001FF
