:020000040800F2
:100000007806002081010008E3090008E1090008E2
:1000100000000000000000000000000000000000E0
:10002000000000000000000000000000E7090008D8
:100030000000000000000000E5090008E9090008D0
:100040009301000893010008930100089301000840
:10005000930100086502000893010008930100085D
:100060009301000893010008930100089301000820
:100070009301000893010008930100089301000810
:100080009301000893010008930100089301000800
:1000900093010008930100089301000893010008F0
:1000A00093010008930100089301000893010008E0
:1000B00093010008930100089301000893010008D0
:1000C00000F002F800F04CF812A030C808382418EC
:1000D0002D18AC4201D100F043F80FCCA246AB463C
:1000E0000CA730CF2D1B083F3F197C427F1E544484
:1000F0002D090426F441641EAC4201D300F030F80F
:100100000126334200D0FB1A3343984754465D46DC
:10011000DFE700004C0C00006C0C0000103A02D32A
:1001200078C878C1FAD8520701D330C830C101D598
:1001300004680C6070470000704700000023002432
:1001400000250026103A01D378C1FBD8520700D30E
:1001500030C100D50B6070471FB51FBD10B510BD75
:1001600000F04DF81146FFF7F7FF00F055FC00F0E6
:1001700065F803B4FFF7F2FF03BC00F06BF8000072
:100180000748804707480047FEE7FEE7FEE7FEE72F
:10019000FEE7FEE704480549054A064B70470000A4
:1001A000150A0008C1000008780000207806002029
:1001B000780200207802002001E004C0091F042911
:1001C000FBD28B0701D50280801CC90700D00270CA
:1001D000704700290BD0C30702D00270401C491E93
:1001E000022904D3830702D50280801C891EE3E71D
:1001F0000022EEE70022DFE7704770477047754640
:1002000000F024F8AE46050069465346C008C00019
:10021000854618B020B5FFF7BDFF60BCB646002686
:100220000027C0C5C0C5C0C5C0C5C0C5C0C5C0C504
:10023000C0C5403D490849008D46704710B5044689
:10024000C046C0462046FFF794FF10BD00487047E7
:100250001000002001491820ABBEFEE72600020076
:100260007047000001200102064A13684B401360EA
:10027000410213684B40136003490A6802430A6055
:100280007047C0461408004814040140B0B5044645
:1002900000F00CF80546601C02D0214800780419D3
:1002A00000F004F8401BA042FAD3B0BD0548006836
:1002B0007047C0461A48007802490A68101808605A
:1002C0007047C0467400002080B585480168102240
:1002D0000A430260032000F005F800F023F8002034
:1002E00080BDC04670B504467D20C0000C4E3178FC
:1002F00000F022FC01468248006800F01DFC00F07E
:1003000055FB0125032C08D8002806D10025E84319
:1003100021462A4600F01CF87460284670BDC0468D
:100320000000002082B009480168012211430160E9
:100330000168114001910199110742680A43426026
:10034000406808400090009802B0704718100240C2
:10035000002805D40322034693430A4A9A1803E06F
:100360000C220240064BD2188007C00E8901C9B288
:100370008140FF2383401068984308431060704712
:1003800014ED00E000E400E0F0B581B0002846D0B4
:100390000446534A1368012003408B4208D2136875
:1003A0000126B3430B431360126832408A4237D1AF
:1003B000009121688A074B4B10D54A0706D50722C2
:1003C00012021B681343474A1360464B1A68F02316
:1003D0009A43A3681343434A1360424BC90722D18F
:1003E0003F49086801263040009A904205D90868C4
:1003F000B04308600868C00712D12078400706D5CE
:100400000720000219688143E068084318601A68F1
:100410001007810F3548022912D2044650E0012608
:10042000304601B0F0BD616803290DD01A1F0229C2
:100430000FD0012912D1126892030646F0D511E0BF
:10044000032926D12A4C3BE01A6B92030646E7D5D6
:1004500008E0126892010646E2D503E012689207AE
:100460000646DDD518680326B04308431860FFF739
:100470001DFF07461C4D1B4B18680C21014060688E
:1004800080008142ACD0FFF711FFC01BA842F2D917
:10049000C6E70321CB031349896A0F240C40154991
:1004A000095D94021A40240F134D2C5D9A4202D02C
:1004B00033049A4200E00E4800F03EFB4443094BEF
:1004C00018680006000F0D49085CC4400C48046021
:1004D0000320FFF707FF0026304601B0F0BDC046FD
:1004E00000200240041002408813000000127A002D
:1004F000006CDC024E0D00083E0D00082E0D0008B9
:1005000008000020F0B587B004460120002C00D17F
:1005100045E204902078C007F94E05940CD071682C
:100520000C200140042900D090E03068800303D5FE
:100530006068002800D120E12078800721D570680C
:100540000007800F0ED070680C210140082900D0F0
:100550009DE00320C003716801400120C003814277
:1005600000D094E030688007059C03D5E06801283E
:1005700000D002E13068F82188432169C9000143B5
:100580003160059C2078000724D42078400737D4B8
:100590002078C00600D4D3E005984069411D00D101
:1005A000C2E0012800D030E1706B04210143716387
:1005B000706B012101437163FFF778FE0546706B94
:1005C000800700D5B4E0FFF771FE411B032002292C
:1005D000F5D9E4E1706AE169002900D181E00121E7
:1005E00008437062FFF762FE0546706A8007CCD44C
:1005F000FFF75CFE401B0228F7D9032007B0F0BDCF
:10060000012003900107F0690840029006D1F069CB
:100610000843F061F0690840069006980191E14FA7
:100620003868C0054AD4039804023868204338600B
:10063000FFF73CFE0546386820423FD1FFF736FE03
:10064000401B6428F7D9032007B0F0BD7168014052
:10065000082908D10320C00371680140012000046B
:10066000814200D161E7616801204704002900D17F
:1006700017E1052900D12BE1012900D12CE101046A
:1006800032688A43326081043068884327E13068E9
:10069000059CE168002936D0012108433060FFF74E
:1006A00005FE05463068800700D563E7FFF7FEFDCD
:1006B000401B0228F6D9032007B0F0BD05988068DA
:1006C000002800D1B6E0052800D1C9E0012800D1FA
:1006D000CAE0306A039988433062306A0421884353
:1006E000C5E0012188437062FFF7E0FD0546706AAE
:1006F000800700D449E7FFF7D9FD401B0228F6D94F
:10070000032007B0F0BD012188433060FFF7CEFD24
:1007100005463068800700D433E7FFF7C7FD411B6B
:1007200003200229F5D93AE1706B042188437063F4
:10073000706BF821884305998969C9000143716389
:100740000598007880060BD571680C2001400C29B3
:1007500039D1706B800303D50598006A01280CD14C
:100760000598446A002C00D1E1E070680C2101403A
:10077000082905D1012C00D0C4E0049807B0F0BDD1
:100780000120020631680492914331604706FFF769
:100790008DFD0546022C0BD1049C3068384200D1F7
:1007A000DEE0FFF783FD411B03200229F5D9F6E0C7
:1007B0003068384200D1BAE0FFF778FD411B0320D2
:1007C0000229F5D9EBE071680140082905D1032021
:1007D000C003716801408142BBD0706B0599096A02
:1007E000002900D1A9E001210A04104370634C04E0
:1007F000FFF75CFD0546706B2042B1D1FFF756FD57
:10080000411B03200229F6D9C9E0706B0421014382
:100810007163706B012188437063FFF747FD0546E4
:10082000706B80078CD5FFF741FD411B0320022927
:10083000F6D9B4E0306A039988433062306A042103
:1008400088433062584CFFF731FD0546306A800717
:100850001DD5FFF72BFD411B0320A142F6D99EE0D9
:10086000306A042101433162306A039908433062DF
:100870004D4CFFF71BFD0546306A800707D4FFF794
:1008800015FD401BA042F7D9032007B0F0BD029828
:100890000028059C00D07BE6F06901998843F0614F
:1008A00076E6010432688A4332608004316881430D
:1008B0003160FFF7FBFC0546059C3068384200D1EB
:1008C0003AE6FFF7F3FC411B03206429F5D966E003
:1008D000810432680A4332600104306808433060A2
:1008E000FFF7E4FC05463068384200D024E6FFF705
:1008F000DDFC401B6428F6D9032007B0F0BDC046DC
:10090000001002400320C20370680240F16A059C97
:10091000A36A9A42049D0DD10F221140236B994284
:1009200008D191040840E16A8842284637D1002066
:1009300007B0F0BD284607B0F0BD01210A0490437E
:1009400070634C04FFF7B2FC0546706B204200D187
:1009500006E7FFF7ABFC411B03200229F5D91EE097
:10096000F06A0F218843059A116B0143F1627B20E5
:10097000C00371688143D06A0843916A0143716082
:10098000306820433060FFF791FC044630683842FD
:10099000CDD1FFF78BFC011B03200229F6D907B04C
:1009A000F0BDC0460070004088130000401E010EDC
:1009B00001D0012070470749074A50600748036883
:1009C0000B4003218907591801600020906007211E
:1009D00011607047FFFFFF0010E000E020ED00E035
:1009E000FEE7FEE77047704780B509480168491C7B
:1009F00001600168C839C72906D849490A688023B7
:100A000053400B6000210160FFF754FC80BDC046DD
:100A1000700000207047000092B0FFF755FC05AD54
:100A2000281D3021FFF7E6FB00240E9410200990CA
:100A300001260896022005902846FFF763FD00284E
:100A400003D0EFF3108072B6FEE70494039402948F
:100A50000720019001A82146FFF796FC002803D04B
:100A6000EFF3108072B6FEE7F0042C490A680243E7
:100A70000A6070040A6802430A60486830434860AC
:100A800055200003264D294614390A6802430A609E
:100A90002846103801684027B943016028460C38C1
:100AA0000168204A11400160284608380168114059
:100AB00001600920C006016801608168B14381605E
:100AC000C1683143C16018480168314301608168E1
:100AD000314381601548016801601548202101609B
:100AE000FF20000213490A688243B003101808600F
:100AF00028688021014329601920040120467030B4
:100B000029680143296028683843286028687840AC
:100B100028602046FFF7BAFBF8E7C04614100240F1
:100B200014080048FFEFFFFF000401400C000140E3
:100B300000E100E004E400E043088B421AD3002205
:100B400003098B4279D3030A8B425ED3030B8B429A
:100B500042D3030C8B4227D30902FF2212BA030CA3
:100B60008B4202D31212090203D0030B8B4233D300
:100B70001AE0D3E0411A8041401C704703460B4302
:100B800071D443088B42F5D3002203098B4254D31E
:100B9000030A8B4239D3030B8B421DD3030C8B42C8
:100BA00002D394466EE0090AC30B8B4201D3CB03F8
:100BB000C01A5241830B8B4201D38B03C01A52419E
:100BC000430B8B4201D34B03C01A5241030B8B42A0
:100BD00001D30B03C01A5241C30A8B4201D3CB028B
:100BE000C01A5241830A8B4201D38B02C01A524170
:100BF000430A8B4201D34B02C01A5241030A8B4273
:100C000001D30B02C01A5241CDD2C3098B4201D38A
:100C1000CB01C01A524183098B4201D38B01C01A08
:100C2000524143098B4201D34B01C01A524103097F
:100C30008B4201D30B01C01A5241C3088B4201D32E
:100C4000CB00C01A524183088B4201D38B00C01ADB
:100C5000524143088B4201D34B00C01A5241411A02
:100C6000524110007047CA0F00D04942031000D310
:100C70004042534000229C4603098B422DD3030A75
:100C80008B4212D38901FC2212BA030A8B420CD385
:100C9000890192118B4208D3890192118B4204D3AE
:100CA000890137D0921100E08909C3098B4201D331
:100CB000CB01C01A524183098B4201D38B01C01A68
:100CC000524143098B4201D34B01C01A52410309DF
:100CD0008B4201D30B01C01A5241C3088B4201D38E
:100CE000CB00C01A524183088B4201D38B00C01A3B
:100CF0005241D9D243088B4201D34B00C01A524112
:100D0000411A00D201465241104663465B1000D39F
:100D10004042704763465B1000D3404201B500215A
:100D2000004201D0C9430846C046C04602BD00008B
:100D30000000000000000102030406070809020386
:100D40000405060708090A0B0C0D0E0F101001020E
:100D5000030405060708090A0B0C0D0E0F1000000E
:100D6000800D000800000020100000001C01000899
:100D7000900D000810000020680600003C010008EB
:100D8000010000000400000000127A0000000000D2
:04000005080000C12E
:00000001FF
